{
  "_format": "hh-sol-artifact-1",
  "contractName": "VulnerableBank",
  "sourceName": "contracts/VulnerableBank.sol",
  "abi": [
    {
      "inputs": [
        {
          "internalType": "address",
          "name": "",
          "type": "address"
        }
      ],
      "name": "balances",
      "outputs": [
        {
          "internalType": "uint256",
          "name": "",
          "type": "uint256"
        }
      ],
      "stateMutability": "view",
      "type": "function"
    },
    {
      "inputs": [],
      "name": "deposit",
      "outputs": [],
      "stateMutability": "payable",
      "type": "function"
    },
    {
      "inputs": [],
      "name": "withdraw",
      "outputs": [],
      "stateMutability": "nonpayable",
      "type": "function"
    }
  ],
  "bytecode": "0x608060405234801561001057600080fd5b5061050c806100206000396000f3fe6080604052600436106100345760003560e01c806327e235e3146100395780633ccfd60b14610076578063d0e30db01461008d575b600080fd5b34801561004557600080fd5b50610060600480360381019061005b91906102e3565b610097565b60405161006d9190610329565b60405180910390f35b34801561008257600080fd5b5061008b6100af565b005b610095610229565b005b60006020528060005260406000206000915090505481565b60008060003373ffffffffffffffffffffffffffffffffffffffff1673ffffffffffffffffffffffffffffffffffffffff16815260200190815260200160002054905060008111610135576040517f08c379a000000000000000000000000000000000000000000000000000000000815260040161012c906103a1565b60405180910390fd5b60003373ffffffffffffffffffffffffffffffffffffffff168260405161015b906103f2565b60006040518083038185875af1925050503d8060008114610198576040519150601f19603f3d011682016040523d82523d6000602084013e61019d565b606091505b50509050806101e1576040517f08c379a00000000000000000000000000000000000000000000000000000000081526004016101d890610453565b60405180910390fd5b60008060003373ffffffffffffffffffffffffffffffffffffffff1673ffffffffffffffffffffffffffffffffffffffff168152602001908152602001600020819055505050565b346000803373ffffffffffffffffffffffffffffffffffffffff1673ffffffffffffffffffffffffffffffffffffffff168152602001908152602001600020600082825461027791906104a2565b92505081905550565b600080fd5b600073ffffffffffffffffffffffffffffffffffffffff82169050919050565b60006102b082610285565b9050919050565b6102c0816102a5565b81146102cb57600080fd5b50565b6000813590506102dd816102b7565b92915050565b6000602082840312156102f9576102f8610280565b5b6000610307848285016102ce565b91505092915050565b6000819050919050565b61032381610310565b82525050565b600060208201905061033e600083018461031a565b92915050565b600082825260208201905092915050565b7f4e6f2062616c616e636500000000000000000000000000000000000000000000600082015250565b600061038b600a83610344565b915061039682610355565b602082019050919050565b600060208201905081810360008301526103ba8161037e565b9050919050565b600081905092915050565b50565b60006103dc6000836103c1565b91506103e7826103cc565b600082019050919050565b60006103fd826103cf565b9150819050919050565b7f5472616e73666572206661696c65640000000000000000000000000000000000600082015250565b600061043d600f83610344565b915061044882610407565b602082019050919050565b6000602082019050818103600083015261046c81610430565b9050919050565b7f4e487b7100000000000000000000000000000000000000000000000000000000600052601160045260246000fd5b60006104ad82610310565b91506104b883610310565b92508282019050808211156104d0576104cf610473565b5b9291505056fea2646970667358221220a3c33f7d6dc6aa6b0a222476655d1ebaa79e5e7fb8f3842bcfc1b89da5ed564e64736f6c63430008180033",
  "linkReferences": {},
  "deployedLinkReferences": {}
}